:020000040800F2
:1000000018070020B501000811050008A104000828
:100010000D050008C9030008A10B0008000000003E
:10002000000000000000000000000000E1060008E1
:10003000CD0300080000000021060008A907000801
:10004000CF010008CF010008CF010008CF01000850
:10005000CF010008CF010008CF010008CF01000840
:10006000CF010008CF010008CF010008CF01000830
:10007000CF010008CF010008CF010008CF01000820
:10008000CF010008CF010008CF010008CF01000810
:10009000CF010008CF010008CF010008CF01000800
:1000A000CF010008CF010008CF010008CF010008F0
:1000B000CF010008CF01000800000000CF010008B8
:1000C000CF0100080000000000000000CF01000880
:1000D000000000000D0A0008CF0100080000000029
:1000E000CF010008CF010008CF01000800F002F89E
:1000F00000F050F814A696E8000CB244B344DA4578
:1001000001D100F047F8BAE80F000FA696E83000DA
:10011000A5EB040504EB0607AAEB0704A7F101070A
:100120004FEA15154FEA3414A4F10104AC4201D38F
:1001300000F030F813F0010F18BFFB1A43F0010371
:1001400000F001F8DBE71847EC2200000C23000068
:10015000103A24BF78C878C1FAD8520724BF30C8F3
:1001600030C144BF04680C60704700007047000055
:100170000023002400250026103A28BF78C1FBD8B0
:10018000520728BF30C148BF0B6070471FB51FBD65
:1001900010B510BD00F0E2F81146FFF7F7FF00F0D0
:1001A0008FFD00F000F903B4FFF7F2FF03BC00F08D
:1001B00003F900000948804709480047FEE7FEE7C9
:1001C000FEE7FEE7FEE7FEE7FEE7FEE7FEE7FEE707
:1001D00004480549054A064B70470000AD07000872
:1001E000ED00000818010020180700201803002067
:1001F00018030020032A40F2308010F0030C00F0B6
:10020000158011F8013BBCF1020F624498BF11F850
:1002100001CB00F8013B38BF11F8013BA2F1040209
:1002200098BF00F801CB38BF00F8013B11F0030381
:1002300000F05A80083AC0F0088051F8043B083AB0
:1002400051F804CBA0E80810F5E7121D5CBF51F887
:10025000043B40F8043BAFF30080D20724BF11F801
:10026000013B11F801CB48BF11F8012B24BF00F866
:10027000013B00F801CB48BF00F8012B70474FF05D
:10028000000200B5134694469646203922BFA0E8E6
:100290000C50A0E80C50B1F12001BFF4F7AF0907F2
:1002A00028BFA0E80C5048BF0CC05DF804EB8900E3
:1002B00028BF40F8042B08BF704748BF20F8022B26
:1002C00011F0804F18BF00F8012B7047704770473E
:1002D000704710B500F03AF8006810BD10B504463C
:1002E00000F034F8046010BD10B5203AC0F00B8067
:1002F000B1E81850A0E81850B1E81850A0E818501C
:10030000203ABFF4F5AF5FEA027C24BFB1E8185091
:10031000A0E8185044BF18C918C0BDE810405FEAF3
:10032000827C24BF51F8043B40F8043B08BF70476F
:10033000D20728BF31F8023B48BF11F8012B28BF74
:1003400020F8023B48BF00F8012B70470048704777
:100350002800002000487047280000207546FFF75D
:10036000F9FFAE4605006946534620F00700854672
:1003700018B020B5FFF72CFFBDE820404FF0000675
:100380004FF000074FF000084FF0000BAC46ACE810
:10039000C009ACE8C009ACE8C009ACE8C00921F06C
:1003A00007018D46704710B50446AFF30080204624
:1003B000BDE81040FFF7F7BE01491820ABBEFEE7CD
:1003C0002600020070470000FEE7000070470000B2
:1003D000CA7802F00F0CD30644BF8B784CEA030CAA
:1003E0002DE9F04709880B0625D082465AF8145BA0
:1003F00000F1100E00264FF001094FF00F08002702
:1004000006E000BF1C600137082F06F1040611D07A
:1004100009FA07F40C42F6D008FA06F325EA0303BA
:100420000CFA06F51D43282A5346EBD0482AEAD198
:100430007346E7E70560B1F5807F38BFBDE8F08718
:10044000436800F1100E00F1140A082500264FF051
:1004500001094FF00F0805E027600135102D06F166
:10046000040610D009FA05F70F42F6D008FA06F490
:10047000A3430CFA06F42343282A5446ECD0482A16
:10048000EBD17446E8E74360BDE8F087C0680840F8
:1004900018BF01207047000041617047016170473B
:1004A000FEE7000010B541F20004C4F2010420464A
:1004B0004FF40051FFF7EAFF30B120464FF40051EE
:1004C000BDE81040FFF7E8BF20464FF40051BDE8FB
:1004D0001040FFF7E3BF000010B582B010200121EB
:1004E00000F0ACF842F2000041F20004C1F2030057
:1004F000C4F20104019001A92046FFF769FF2046DC
:100500004FF40051FFF7CAFF02B010BDFEE7000034
:100510007047000010B5C17800294EF20011CEF2EC
:1005200000011AD04EF60C52CEF2000212680723D8
:1005300023EA12220F23C2F1040C23FA02F24378B9
:10054000847890F800E003FA0CF322401A43120179
:1005500001EB0E0383F8002300E0803100780123D3
:1005600000F01F0203FA02F2C0F3421041F820200B
:1005700010BD000040F080604EF60C5140F0FD7060
:10058000CEF2000108607047B0B588B001200121AB
:1005900000F048F80420012100F050F80120C1F6D5
:1005A0000300079040F60000C4F2010007A9FFF71E
:1005B0000FFF4FF0804000F08BF940F2F310CDF8C0
:1005C00016004720CDF8120000250DF112014FF062
:1005D00080408DF81A5000F0C3F90DF10204204656
:1005E00000F0B4F96020C0F20100CDF802004FF035
:1005F00080402146029500F071F94FF080400121C2
:1006000000F05CF908B0B0BD01464FF0804000F04A
:10061000A3B9000001464FF0804000F09FB90000F0
:1006200070470000002941F21C01C4F202010A686F
:100630000CBF22EA0000104308607047002941F215
:100640001801C4F202010A680CBF22EA000010433C
:100650000860704710B541F20404C4F20204226835
:1006600002F00C02082A41F20022C0F27A0212D1F2
:100670002368D4F800C0C3F3834E5FEACC330EF195
:10068000020C02D523689B0303D540F60012C0F28A
:100690003D020CFB02F20260226842F22443C2F3E4
:1006A0000312C0F600039A5C0168D14041602268E1
:1006B000C2F302229A5C21FA02F282602268C2F33B
:1006C000C2229A5C42F22043D140C1602268C0F647
:1006D0000003C2F381329A5CB1FBF2F1016110BDFB
:1006E0007047000070B586B040F21411C2F20001EC
:1006F00008604FF480400121FFF7A0FF0420012192
:10070000FFF79CFF43F6000440F20020C4F201040E
:10071000C1F60300A4F5405505AE059028463146C4
:10072000FFF756FE40F20040C4F60300059028464D
:100730003146FFF74DFE4FF4E130019000204FF4B9
:100740004021ADF81000CDE9020101A9204600F0DA
:10075000C3F9204640F22551012200F0A5F94FF4DB
:10076000A060FFF707FF40F22510C0F201100090D3
:100770006846FFF7CFFE2046012100F06FF906B072
:1007800070BD000010B543F60004C4F20104014638
:10079000204600F001FA00BF2046802100F068F9F1
:1007A0000028F9D010BD00007047000082B041F26F
:1007B0000400C4F2020050F8041C002241F00101C0
:1007C00040F8041C0168CFF6FF021140016050F8A8
:1007D000041C4FF6FF72CFF6F662114040F8041C7D
:1007E00050F8041C21F4802140F8041C016821F415
:1007F000FE0101604FF41F01416000210191009151
:1008000050F8041C41F4803140F8041C50F8041CDA
:1008100001F400310091019901310191009919B958
:100820000199B1F5A06FF1D150F8041C890354BFB0
:100830000021012100910099012936D142F20001E5
:10084000C4F202010A6842F010020A600A6822F04B
:1008500007020A600A6842F002020A600168016049
:1008600001680160016841F480610160016821F460
:100870007C110160016841F4E811016050F8041C2A
:1008800041F0807140F8041C50F8041C8901FBD52C
:10089000016821F003010160016841F0020101607B
:1008A000016801F00C010829FAD14EF60850CEF289
:1008B00000004FF00061016002B07047028800291B
:1008C00018BF012122F0010211440180704700008D
:1008D000018921F00701018170470000B0B5028C49
:1008E00022F001020284038C8288B0F818C00C89BF
:1008F00023F002032343A0F180444D88A4F59634ED
:10090000B1F800E04FEAB424072C43EA050313D8FA
:10091000012505FA04F414F0E50F0DD04C8923F0FD
:100920000C0324F004048D8823438C892B4322F488
:100930004072CD8922432A432CF0730545EA0E0507
:1009400082800583C98881860384B0BD0021C1608F
:100950008160416001607047818570478186704782
:1009600040F6FF33B0F800C0C4F2000398420FDC39
:10097000B0F1804F1ED040F20043C4F20003984211
:1009800018D040F60003C4F20003984212D016E0DB
:1009900040F60043C4F2000398420BD043F20043F8
:1009A000C4F20103984205D042F60043C4F20103A9
:1009B000984204D14B882CF0700243EA020C41F2B9
:1009C000004240F48063C4F20002934204D0CA881B
:1009D0002CF4407342EA030CA0F800C08A88828598
:1009E000A0F18042A2F596320B884FEAB222072A84
:1009F000038507D8012303FA02F212F0E50F1CBFAA
:100A0000097A0186012181827047000010B543F602
:100A10000004C4F20104204640F2255100F02EF8F3
:100A2000012818BF10BD204600F0B2F840F21411A2
:100A3000C2F20001096809B1C0B28847204640F2FD
:100A40002551BDE8104000F001B80000090A01225C
:100A500002FA01F1C9430180704700008289002930
:100A600018BF012122F4005242EA413181817047CE
:100A70000088084018BF012070470000C1F34212EF
:100A80001423022A08BF1023012A08BF0C23C35ACB
:100A9000008801F01F02090A23FA02F2C840104040
:100AA00000F0010070470000C1F3421301F01F0C79
:100AB0001421022B08BF1021012B4FF0010308BFA6
:100AC0000C21002A03FA0CF243580CBF23EA02025D
:100AD0001A4342507047000070B586B00446008A41
:100AE0000D46C98820F4405008432082A0894EF664
:100AF000F3110840A9882A896B89084310431843D9
:100B0000A081A08AA98920F44070084301AEA08288
:100B10003046FFF79FFD43F6000106F10800C4F2DE
:100B200001018C4208BF06F10C0000681922B4F9DB
:100B30000C1050432A680123B1F1FF3FC8BF0223C4
:100B400002FA03F1B0FBF1F048F21F51C5F2EB11CC
:100B5000A0FB01235A096FF0630302FB0300B4F901
:100B60000C300326B3F1FF3FC8BF042600FA06F09D
:100B700000F13200A0FB01014FF00700C8BF0F20B9
:100B800000EA511040EA0210208106B070BD00005A
:100B900080886FF35F2070476FF35F21818070471B
:100BA000FEE7000040F28C0CC2F2000C9CF8003012
:100BB0005A1CD1B28CF8002040F28E02C2F2000220
:100BC0000529D05438BF704710884BF6EF61884232
:100BD0000CD100208CF8000040F2880040F6F13182
:100BE000C2F20000C0F6000101607047FEE700009D
:100BF00010B540F28C0CC2F2000C40F28E0E9CF844
:100C00000030C2F2000E9EF804105A1CD4B28CF8C8
:100C100000200EEB03028C42507138BF10BD002043
:100C20008CF8000040F2880040F6A531C2F20000C6
:100C3000C0F60001016040F28D00C2F20000012107
:100C4000017010BD002808BF704710B548F6366126
:100C5000C0F2030188424EF21001CEF200010FD81B
:100C600000EBC000C00048600020886005200860DC
:100C70000868C003FCD504200860BDE81040704738
:100C800044F6D352C1F26202A0FB020241F6401CBC
:100C90009009C0F2010C4FF0000E0522042300BFA2
:100CA000C1F804C0C1F808E00A6000BF0C68E403A2
:100CB000FCD501380B60F3D1BDE81040704700004F
:100CC000FFF70AFC40F2880040F6A531C2F20000AE
:100CD000C0F60001016041F29920C0F60000FFF764
:100CE00001FDFFF751FC40F28E0740F2B40841F2DB
:100CF000AD1041F26D1140F28D06C2F20007C2F252
:100D00000008C0F60000C0F60001C2F200067D1D1A
:100D10000024C8E90C0100BF30780028FCD0FFF7A0
:100D2000C1FB3A794046294600F008F820B9B87866
:100D30003470FFF727FDEFE7FEE700002DE9F047ED
:100D400082B004460020ADF8060042B340F200092C
:100D500015460E4604F13C08C2F200090DF1060AE0
:100D60000AE000BF40462421FFF789FABDF80600DB
:100D70002D1A2904384412D094F82C1087B259F84F
:100D80002130F11920465246ADF806509847002808
:100D9000E8D010F1FF01E9D102B0BDE8F08794F886
:100DA0002C00092803D1616B09B120468847002037
:100DB00002B0BDE8F08700000020704710B513882E
:100DC00001EB030C9BB1C36B4FF0010E0C7804F0E8
:100DD0007F0444EAC313C36391F90040B4F1FF3FB9
:100DE00007DC013161450EF1010EEFD301E04FF058
:100DF000010E614508BFAEF1010EA2F800E009D076
:100E0000C16B0322C161002180F8231080F82C20DF
:100E1000084610BD4FF0FF3010BD0000D0E90FC3F1
:100E20001188ACEB03038B4238BF19461180D0E91F
:100E30000F2389B219449142016431BF4FF0FF3052
:100E4000022180F82C1000207047000090F820301C
:100E5000FF2B02D04FF0000C10E0012380F823306C
:100E600091F90030002B80F8203044BF6FF0FE0075
:100E7000704713884FF0010C013B138013883BB37C
:100E8000B0B56144C46B01EB030E01230D7805F08E
:100E90007F0545EAC414C46391F90050B5F1FF3FE2
:100EA00004DC0131714503F10103EFD36344714563
:100EB00008BF013B13801CD090F82310B1B190F80B
:100EC00020202F2A08D1C16BB1B16FF0FE00B0BD58
:100ED0000020A2F800C0704741B190F820105129BD
:100EE00004D1C16B0329F0D108210DE0072180F85E
:100EF0002C104FF0FF30B0BD816A42890131914220
:100F000081620CBF0921012180F82C100020B0BDA6
:100F1000097890F8203080F8211003F0E001C02912
:100F20004FF0010111801FD1002180F82210416A89
:100F3000022280F82C2021B94AF22011C0F20701C8
:100F40004162C169426A83895143026B01EB5301DB
:100F5000B1FBF3F1C16152B180B500F11C019047C2
:100F6000BDE8804000207047052180F82C1000204B
:100F700070470000097880F8221001211180416A31
:100F8000022280F82C2021B94AF22011C0F2070178
:100F90004162C169426A83895143026B01EB53018B
:100FA000B1FBF3F1C1612AB180B500F11C0190479A
:100FB000BDE880400020704770B5044690F83C00C2
:100FC00016881546C0F103022044B242B8BF164647
:100FD0003D303246FFF70EF994F83C00304484F877
:100FE0003C002E8094F83C0003283CBF4FF0FF30BB
:100FF00070BD94F83D0094F83F1094F83E2084F8BA
:101000002600022084F82C00002084F8241084F8A4
:10101000252070BD80B591F900104FF0010C00291A
:1010200005D4017E31B3417E4FF0000E01E04FF058
:10103000010E4BB213F1100F80F82010A2F800E05F
:10104000417680F818C001DA04210EE0C9B2A1F19E
:10105000F0020F2A6FF0FE010AD8012303FA02F210
:1010600048F281031A4203D0062180F82C10002197
:10107000084680BD6FF0FE0080BD000070B50446DC
:1010800090F83C0016881546C0F10E022044B2428A
:1010900038BF16463D303246FFF7ACF894F83C00B6
:1010A000304484F83C002E8094F83C000E283CBF6D
:1010B0004FF0FF3070BDD4F84100D4F83D1000BAB5
:1010C000C4E90010B4F8450045F24D42C6F268424A
:1010D000914200BAB4F847104FEA1040208108BA94
:1010E000B4F849104FEA1040608108BA4FEA104046
:1010F000A08111BF6FF0FE00012084F82C000020B9
:1011000070BD000070B5044690F83C001688154686
:10111000C0F108022044B24238BF16463D30324684
:10112000FFF768F894F83C00304484F83C002E80C7
:1011300094F83C0008283CBF4FF0FF3070BDD4F855
:101140004100D4F83D1045F24D4200BAC6F6723265
:101150009142C4E9041011BF6FF0FE000020207618
:10116000022108BF84F82C1070BD000010B50446A1
:1011700040F28C00C2F200000021017040F28800B1
:1011800040F6A531C2F20000C0F600010160204621
:101190006021FFF774F841F2AD1041F26D11C0F615
:1011A0000000C0F60001C4E90C0110BDF0B581B02B
:1011B00040F28E020879C2F20002D27800F00F03EA
:1011C00093421CBF01B0F0BD00F0F0060C6846F081
:1011D000100090285AD148790F4600F0FDFD44F2E6
:1011E0000003CCF25103002200F02EFB0023C4F2D6
:1011F0002803002200F0E4FB00F012FA48F200039A
:10120000C4F27B03002200F037FE00F0A1FD05468A
:1012100097F90600B6F1800118BF0146002848BFC3
:101220007F21C8B200F0D8FD4CF20003C4F25F0386
:10123000002200F0C5FB0023C4F25903002200F095
:101240001BFE00F085FD4AF6AB21CAF6AA21A0FBE1
:10125000010120464E08FFF7F5FC44F24020C0F2A1
:101260000F00B0FBF5F4601E80B2FFF7CDF948F235
:101270001F5106FB04F0C5F2EB11A0FB0101C1F305
:101280004F1001B0BDE8F040FFF7C4B9204601B0EF
:10129000BDE8F040FFF7D6BC40F28801C2F2000181
:1012A00009680847490050EAC12018BF04204A0DC8
:1012B00018BF40F0010040F2FF72B2EB515F08BF6F
:1012C00040F00200012808BF052070472DE9F041D9
:1012D0004F1E00EBC7010446D1E9000115461E462A
:1012E00037F006020DD02A46334600F0C5FD7F1EBA
:1012F00004EBC703D3E9002300F0A6FA37F0060297
:10130000F1D1022F25D0042F13D0062F18BFBDE82E
:10131000F0812A46334600F0AFFDD4E90A2300F0FD
:1013200093FA2A46334600F0A7FDD4E9082300F0DB
:101330008BFA2A46334600F09FFDD4E9062300F0DD
:1013400083FA2A46334600F097FDD4E9042300F0DF
:101350007BFA2A46334600F08FFDD4E9022300F0E1
:1013600073FA2A46334600F087FDD4E90023BDE82E
:10137000F04100F069BA012200F0DEBF40F2013214
:1013800000204FF0E04100F0D7BF0000024A0020EB
:10139000110700F0D1BF000001FDFFFF2DE9F04D66
:1013A000894BCE0F21F0004784B005460C469F4282
:1013B00030D38648874211D3C7F31300284305D0A2
:1013C00004B02846BDE8F04DFFF7D5BF002E1ABF88
:1013D00000200146284604B0BDE8F08D7C4A28462E
:1013E00000F048FE07D20220FEF778FF04B0BDE807
:1013F000F04DFFF7C3BF774A774B2846214600F0F0
:10140000FFFC07D20220FEF769FF04B0BDE8F04DF3
:10141000FFF7BCBF7148B84248D27148874215D225
:101420007048784400EBC6002146D0E900232846E6
:1014300000F062FECDE900016B48784400EBC60085
:10144000D0E900ABC6F10100861B26E0674A684B75
:101450002846214600F010FD664A7A4402EBC60396
:10146000D3E9002300F0F0F900F042FC064600F05A
:101470009CFC07468846604A604B00F0FDFC2A460B
:10148000234600F02DFECDE900015D4A5D4B384654
:10149000414600F0F1FC82468B46DDE900015246F0
:1014A0005B4600F029FE05460C4618E05648874288
:1014B00014D2564A564B2846214600F0C5F9554EDF
:1014C0000022334600F0D6FD08D204B03346284649
:1014D0002146BDE8F04D002200F0B6B900262A46AC
:1014E00023461046194600F0C7FC804602464A488B
:1014F0000F460B4605217844FFF7E8FE42463B467F
:1015000000F0BAFC2A46234600F0EAFD074688466A
:10151000E6B302460B4600204FF0804100F0ECFDA0
:10152000CDE902013A4643462846214600F0A4FC94
:10153000DDE9022300F044FA52465B4600F0D0FD9C
:10154000DDE9002300F0D8FD0022324B00F0C8FD99
:101550006FF47F729642A2BF01EB065104B0BDE862
:10156000F08D4FF07A5202EB065211442B4A00F0F4
:10157000E3FE04460D46FFF795FE042808BFFFF77B
:1015800005FF204604B02946BDE8F08DFFE70022A4
:101590004FF0804300F0B0FD82460E463A46434687
:1015A0002846214600F068FC5246334600F008FA0F
:1015B0002A46234600F0A0FD04B00022BDE8F04D0D
:1015C000144B00F08DBD0000422E86400000F07FDD
:1015D000EF39FAFE51302DD5104987C0422ED63F43
:1015E000B2A2F03FB20F0000AA0F0000FE822B65EE
:1015F0004715F73F6A0F00000000E0FE422EE63F6D
:10160000763C7935EF39EA3D0000303E9C75008824
:101610003CE4377E0000F03FFE0E000018FCFFFFA8
:10162000F0B583B004000D4614BF0120002028430C
:1016300020F00040C0F17F6000F1E040394FC00F62
:1016400005D100223B46204600F016FB05D120467E
:101650002946FFF790FE03B0F0BD0022324B204632
:10166000294600F009FB01BF0020014603B0F0BD90
:101670006A462046294600F09DF805460C46DDE9FD
:1016800000010022294B00F0BBFB38BF284E0ED3CF
:10169000DDE900010022274B00F0ECFC38BF4FF4DD
:1016A000006604D3DDE9000100F022FB0646224A71
:1016B000224B2846214600F0DFFBFFF76FFE324643
:1016C00000F03EF804460D4606F57F7040F2FB71CF
:1016D000884223D3002213462046294600F0CCFA44
:1016E00006D10220FEF7FAFDFFF750FE03B0F0BD71
:1016F00000223B462046294600F0BEFA06D10220D1
:10170000FEF7ECFDFFF73AFE03B0F0BD2046294698
:10171000FFF7C8FD042808BFFFF738FE204603B0D6
:101720002946F0BD0000F07F0000F0FF0000A0C0DF
:1017300000F8FFFF0000A040EF39FAFE422EE63F1E
:101740002DE9F04106460C4640F2FF75174635EA92
:1017500014502BD000221346304600F08DFA25D0CD
:101760003A463046214600F0E7FD06460C4635EA8B
:10177000145010D000221346304600F07DFA15D1E7
:101780000220FEF7ABFDFFF701FE0A46214662F399
:101790001E01BDE8F0810220FEF7A0FDFFF7EEFD7F
:1017A0000A46214662F31E01BDE8F081304621461B
:1017B000BDE8F081002814BF4FF0010C4FF0000C81
:1017C0004CEA410313F5001F84BFC2E900017047D2
:1017D000F0B4C1F30A53A3F2FF344FF0000C01F050
:1017E0000043142C15DA002CBEBFC2E900C3F0BCC4
:1017F0007047144D25FA04F401EA040656EA000580
:1018000010D021EA0403C2E900C3F0BC624600F034
:1018100073BC332C06DC4FF0FF35143C25FA04F47E
:10182000204205D1C2E90001F0BC1946604670476C
:1018300020EA0403C2E90031F0BC1A460B4600F06E
:101840005BBC0000FFFF0F0010B591EA030F48BF1B
:1018500083F0004300F15884841A71EB030C05D225
:10186000121943EB0C03001B61EB0C014FEA1154FE
:10187000A4EB135CDFF81CE11EEA430F18BF9EEADD
:10188000445F00F0748021EA045123EA0E0343F41C
:101890008013DCF1200E32D322FA0CFE10EB0E0086
:1018A00023FA0CFE41EB0E01CCF1200E03FA0EFEE2
:1018B00010EB0E00CCF1200E51F10001B1F5801FAC
:1018C00032D201EB045112FA0EF2BDE8104058BFBB
:1018D0007047401C38BF5FEA420218BF70470028BB
:1018E00014BF20F0010041F100014FEA410313F55C
:1018F000001F38BF7047A1F1C04100F0B5BB012AFD
:1019000043EB0302ACF1200CDCF11F0E32BF4FF0B1
:10191000000E23FA0CF310EB030041EB0451B4EB7F
:10192000115FD0D0A1EB045101F58011490801EB02
:1019300004515FEA30000ED350F1000038BF12FAB4
:101940000EFE08D1BDE81040C9E7401C38BF5FEA71
:101950004202CAD1C3E7BDE810404FEA410313F584
:10196000001F38BF7047A1F1C04100F07DBB9EEA67
:10197000445F08D011EA5E0FBDE8104004BF01F0DB
:10198000004100207047BDE8104070B500F01EFB1C
:1019900064FBBE3E0000E0FF02494FF0000000F093
:1019A00099BC00BF0000F87F491058BFC1F1404109
:1019B0005B1058BFC3F140438B42EFF30080704788
:1019C0002DE9C04130B4DFF8A8C23CEA111418BFB9
:1019D0003CEA131400F0F0801CEA111481EA0305BC
:1019E00044EAD57418BF1CEA131500F0CB80A4EBB1
:1019F000050404F17F7404F500344FF0004545EA16
:101A0000C12145EAC32341EA505143EA52534FEA08
:101A1000C0204FEAC222994208BF904200F0A08045
:101A20004FEA13650FF24816765D4FEA134506FB41
:101A300005F7C7F1807706FB07F74FEAD737A7FB13
:101A400003687642A7FB06CEC8F5803838BFA8F1F8
:101A5000010807FB08E6A6FB028C4FF0000EE6FB30
:101A600003CED8F100086FEA0C0C5CF1000C6FEAB1
:101A70000E0E4EF1004EA6FB0C584FF00007E6FB91
:101A80000E87A1FB08C6A0FB07CE16EB0E064FF093
:101A9000000545F10005E1FB076515F1E04E7EBF4D
:101AA000A4F580345FEA46066D4116F1800745F1E2
:101AB00000054FEA172747EA05674FEA15254FEA61
:101AC0000666A6F1DE46B6F1805F20D9384605EB02
:101AD000C47124F0010C01EB0C11BCF1FE6F02D8B3
:101AE000F0BCBDE8008124425CBF01F5801E9EEA87
:101AF000C47F02D4F0BCBDE80081244200F13980EB
:101B0000A1F1C041F0BCBDE8004100F0ADBA4FEA20
:101B1000D02040EA41504FEAD1214FEAD22242EA96
:101B200043524FEAD323A7FB028607FB036605FB5C
:101B300002661EEA0E0F58BFA6EB0056B6EB005623
:101B40004FEA520E4EEAC37E18EB0E0E56EB530EC2
:101B5000BCD518EB02085E417F1C55F10005B5E7C6
:101B60004FF480154FF000074FF000064FF00008CB
:101B7000ACE701F1C04101F000414FF00000F0BCC2
:101B8000BDE800810CEA131511EA0C1F00D00CE02F
:101B900013EA0C1F00F025804FF0000081EA0301DA
:101BA00001F00041F0BCBDE80081F0BCBDE800419F
:101BB00081EA030100F058BAF0BCBDE8004170B5FD
:101BC00000F004FA097EFC3E00F007B84FF0000078
:101BD00081EA030101F00041704781EA030100F04E
:101BE00043BAF0BCBDE8004122494FF00000704705
:101BF000FFFDFBF9F7F5F4F2F0EEEDEBE9E8E6E4D2
:101C0000E3E1E0DEDDDBDAD8D7D5D4D3D1D0CFCD58
:101C1000CCCBCAC8C7C6C5C4C2C1C0BFBEBDBCBB91
:101C2000BAB9B8B7B6B5B4B3B2B1B0AFAEADACAB8C
:101C3000AAA9A8A8A7A6A5A4A3A3A2A1A09F9F9E66
:101C40009D9C9C9B9A999998979796959594939318
:101C5000929191908F8F8E8E8D8C8C8B8B8A8989AF
:101C60008888878786858584848383828281818032
:101C70000000FF070000F87F51EA030C17D41CF5A1
:101C8000801F58BFBCF5801F00F10680994218BF25
:101C9000704708BF9042704707D711F5801F58BFA3
:101CA00013F5801F19D499427047894270471CF57B
:101CB000801F08D5BCF5801FF7D58B4218BF704731
:101CC00008BF824270474FF4001C1CEB410F38BF25
:101CD0001CEB430F01D28B42704770B500F076F9D0
:101CE000922449004FF000514FF08053FFF75CBE43
:101CF0004FEA41034FEA5353A3F58063D3F11E0328
:101D0000C8BFD3F1210C0CDD4FF0004242EAC122E2
:101D100042EA505232FA03FC8CEAE17CACEBE1700F
:101D20007047102BC4BF0020704703F5787CBCF1CE
:101D3000FF3F04D06FF0004282EA2100704770B587
:101D400000F044F94992248000207047F2E7000037
:101D50004FEA1153A3F58063D3F11E03A8BFD3F15B
:101D6000200C08DB4FF0004242EAC12252EA5052F6
:101D700032FA03F0704709420BD4102BC4BF002085
:101D8000704703F5787CBCF1FF3F05D04FF0FF3082
:101D900070474FF00000704770B500F017F900BFB2
:101DA0004992248000207047F0E710F0004248BFBD
:101DB0004042B0FA80F310FA03F10AD0C3F11D03D8
:101DC00003F5806302EB03524FEA415002EBD1214D
:101DD00070474FF000007047B0FA80F310FA03F13B
:101DE0000AD0C3F11D0303F580634FEA03524FEAA3
:101DF000415002EBD12170474FF0000070470000C6
:101E000051EA030C17D41CF5801F58BFBCF5801F86
:101E100000F10680994218BF704708BF9042704792
:101E200007D711F5801F58BF13F5801F19D49942A9
:101E30007047894270471CF5801F08D5BCF5801F8C
:101E4000F7D58B4218BF704708BF824270474FF4E6
:101E5000001C1CEB410F38BF1CEB430F01D28B421F
:101E6000704770B500F0B2F8922449004FF000516D
:101E70004FF08053FFF798BD70B5DFF848C11CEAFA
:101E8000111E1EBF1CEA13159EEA0C0F95EA0C0FDB
:101E900000F06F8081EA03044EEAD47EAE4421EA6A
:101EA0004C1123EA4C1341F4801143F48013AEF13A
:101EB0007F7EA1FB024CA0FB0365361955EB0C0598
:101EC000A1FB034C4CF10003A0FB021C16EB0C061B
:101ED000654153F10003094218BF46F0010613F4AF
:101EE000007F0BD14FEA03314FEA053041EA15512B
:101EF00040EA165034036FF003020AE04FEAC321B0
:101F00004FEAC52041EA555140EA5650F4026FF0BD
:101F1000020202EB2E4201EB025585EACE710AD095
:101F20005FEA440C18BF24F0004450F1000041F176
:101F3000000120EAD47040F2FE7C624500D270BD00
:101F4000A84214BF4FF080444FF04044002E08BF19
:101F50000024BEF1806FA8BFA1F1C041BDE8704070
:101F600080F2828001F1C04101F000414FF0000099
:101F700070470CEA13159EEA0C0F18BF95EA0C0F78
:101F800006D081EA030E4FF000000EF0004170BD54
:101F900000F01CF88900013E00F007B800F009B815
:101FA0004FEA430C5FEA5C5C08D081EA030100F071
:101FB0005BB84FEA410C5FEA5C5CF6D102494FF036
:101FC000000070470000FF070000F87F0EF1020ECE
:101FD0002EF0030E5EF8046B364205D4012A43EB63
:101FE000030515F5001F12D8012841EB010C1CF563
:101FF000001F0CD80ED14FEAD17C0CEB4C0C0CF12D
:10200000020C15F5001F08BF4CEBD37C04E04FF029
:10201000080C01E04FEAD37C0CEB4C0526FA05F6E0
:1020200006F00706B6F1040C06D20EEB860CBDE8EE
:1020300070404CF0010C6047DFE80CF0090B020225
:102040004FF00041A1F500214FF0000070BD19468E
:102050001046012851EB010418BFD4F5001484BFC9
:10206000002001F0004170BD0808A0F500114FEA02
:102070003101704753EA010C17D41CF5801F58BF7B
:10208000BCF5801F00F106808B4218BF704708BF67
:102090008242704707D713F5801F58BF11F5801F84
:1020A00019D48B4270479B4270471CF5801F08D59E
:1020B000BCF5801FF7D5994218BF704708BF904202
:1020C00070474FF4001C1CEB430F38BF1CEB410F53
:1020D00001D2994270470FB40CBC03BCFFF7C1BEDC
:1020E00010B591EA030F81F000413FF5B5AB83F0E5
:1020F000004300F009B8000010B591EA030F48BF93
:1021000083F000433FF5A8AB841A71EB030C07D2B0
:102110008CF0004C121943EB0C03001B61EB0C011B
:102120004FEA1154A4EB135CDFF8A4E11EEA430F5D
:1021300018BF9EEA445F00F0B48021EA045123EA0C
:102140006E035242C3EB6E0338BF5B1EDCF1200E00
:1021500025D322FA0CFE10EB0E0043FA0CFE41EBE5
:102160000E01CCF1200E03FA0EFE10EB0E00CCF1A6
:10217000200E51F1000129D401EB045112FA0EF2A4
:10218000BDE8104058BF7047401C1CBFB2F1004F63
:10219000704700280CBF491C20F00100704712EB6B
:1021A000020E43EB030218BF4FF0010E4EEA42024B
:1021B000ACF1200CDCF11E0E56D943FA0CFE10EBEC
:1021C0000E00CCF11E0E51F1FF31D5D50EF1010EEE
:1021D00012FA0EFE404141EB010101EB445C5FEA63
:1021E0005C5C10D901EB045110EBDE7038BFBEF11E
:1021F000004FBDE8104018BF704700280CBF491CB5
:1022000020F00100704734D24FEAD42C24F400644B
:1022100011F500111BD0B1FA81F20B3AA41AA41ED9
:10222000D2F12003914030FA03F31943904001EBBF
:10223000CC7101EB0451002CBDE81040A8BF7047E1
:1022400001F1C04101F000414FF000007047B0FAC9
:1022500080F310FA03F102D1BDE810407047E41A90
:10226000173C4805C90AE2E701EB0451BDE81040FC
:10227000704749104FEA300001EB0451BDE81040AF
:1022800002E04FF0000170474A0008BF0042F8D05A
:10229000B2F5001F28BF704701F000414FF0000069
:1022A00070479EEA445F07D011EA5E0FBDE8104018
:1022B00004BF002100207047BDE8104070B5FFF753
:1022C00085FE00BF40DFF63E104683F000417047B8
:1022D0000000E0FF0CF00F03092B08BF082000F0FE
:1022E00059800A2B0BD0082B18BF704708BF1CF071
:1022F000400F0AD04FF000004FF0000170471CF073
:10230000400F18BF4FF0004070471CF0100F08D06E
:1023100000F07F4220F0704342EAD3014FEA43705D
:10232000704700F0604021F07F4242EA000201F075
:102330007F4040EA727070474FF0FF0C4CF4E06C45
:102340001CEA11531CBF9CEA030C9445C2BFDA423D
:1023500001EB02517047002B0DD0BCF1000F0FD0E4
:1023600001F00041002AA4BF41F0E04141F07F614B
:102370004FF00000704701F000414FF0000070473F
:1023800050EA01334FF09B0C18BF4CF0806C7FF487
:1023900003AB70471CF4801F11D01CF4E02F03D056
:1023A0006FEACC31490070474FF04050EFF30082A4
:1023B00022F0704242EA000282F3008870474FF038
:1023C0000000704700000000000000000000E03F37
:1023D000000000000000E0BF0000E0FE422EE63FEB
:1023E0000000E0FE422EE6BF763C7935EF39EA3D4B
:1023F000763C7935EF39EABD3E5555555555C53FC3
:1024000093BDBE166CC166BF2CDE25AF6A56113F68
:10241000F16BD2C541BDBBBED0A4BE726937663E6A
:102420000204060800000000010203040102030484
:1024300006070809582400080000002028000000B2
:10244000500100088024000828000020F006000049
:1024500070010008000000007D1000080511000850
:10246000BD0D000815100008110F0008750F0008B9
:102470004D0E00081D0E0008B90F0008B90D000828
:04000005080000ED02
:00000001FF
